:100000004BC0000051C000004FC000004DC00000B8
:100010004BC0000049C0000047C0000045C00000C0
:1000200043C0000041C000003FC000003DC00000D0
:100030003BC0000039C0000037C0000035C00000E0
:1000400033C0000031C000002FC000002DC00000F0
:100050002BC0000029C0000027C0000025C0000000
:1000600023C0000021C000001FC000001DC0000010
:100070001BC0000019C0000017C0000015C0000020
:1000800013C0000011C000000FC000000DC0000030
:100090000BC0000009C0000011241FBECFEFD0E24A
:1000A000DEBFCDBF08D06DC0ABCF11B88FEF84B924
:1000B00087B98DB90895F9DF20D018B888B18F5F5E
:1000C00088B94FEF60E080E041D0F8CF94B19760FD
:1000D00094B9239880648CBD8CB508958EBD0DB401
:1000E00007FEFDCF8EB508952F9A89EF90E0019716
:1000F000F1F700C000002F980895CF93DF9384E1BB
:10010000E5DF81E085B9C8E0D0E080E0E7DF80E0AE
:10011000E5DF80E0E3DFE8DF21972097B1F7DF91AB
:10012000CF910895CF93DF9300D0CDB7DEB72EB92E
:100130004A836983D3DF6981862FD0DF4A81842F88
:10014000CDDF0F900F90DF91CF91CECF0F931F9304
:10015000CF93DF93D82F162F042FC0E02C2F402FE2
:10016000612F8D2FDFDF89EF90E00197F1F700C05D
:100170000000CF5FC83091F7DF91CF911F910F91B1
:060180000895F894FFCF82
:00000001FF
