:020000021000EC
:10E000004BC0000082C0000080C000007EC0000045
:10E010007CC000007AC0000078C0000076C000001C
:10E0200074C0000072C000005EC500006EC0000039
:10E030006CC000006AC0000068C0000066C000003C
:10E0400064C0000062C0000060C000005EC000004C
:10E0500043C300005AC0000058C0000056C0000072
:10E0600054C0000052C0000050C000004EC000006C
:10E070004CC000004AC0000048C0000046C000007C
:10E0800044C0000042C0000040C000003EC000008C
:10E090003CC000003AC0000011241FBECFEFD0E208
:10E0A000DEBFCDBF04B603FE19C08091A0019091E0
:10E0B000A10182349C4D91F484B7877F84BF88E1AD
:10E0C0000FB6F89480936000109260000FBE10921B
:10E0D000A1011092A001E0E0F0E0099511E0A0E0BC
:10E0E000B1E0EEEDFEEE01E00BBF02C007900D9235
:10E0F000A239B107D9F711E0A2E9B1E001C01D9240
:10E10000A03AB107E1F735D0E8C67ACF84E0809332
:10E11000E9000DC08091E8008B778093E80003C090
:10E120008EB3882359F08091E80082FFF9CF809167
:10E13000E80085FFEFCF8091F100089580E0089519
:10E1400093E09093E9009091E80095FF03C08093DD
:10E15000F10008959091E8009E779093E80003C045
:10E160009EB3992329F09091E80090FFF9CFEFCF6B
:10E170000895CF93DF93CDB7DEB72A970FB6F89403
:10E18000DEBF0FBECDBF84B7877F84BF88E10FB6E7
:10E19000F89480936000109260000FBE90E080E8D9
:10E1A0000FB6F89480936100909361000FBE11E068
:10E1B00015BF82E085BF7CD48AB1806F8AB98BB1EC
:10E1C0008F708BB910936F0083E0809381008BB1C7
:10E1D0008F7080618BB97894E4E09E2EF3E07F2EFF
:10E1E000BB24B394A5E06A2E01E1B9E0AB2E59C27D
:10E1F0009092E9008091E80082FF52C287DF982F59
:10E20000853419F41092000106C08857823010F04E
:10E21000943521F47BDF8DE093DF1BC29035D9F379
:10E220009C3409F4F8CF943711F484E483C0913618
:10E2300011F489E5F1CF913491F468DF182F66DF8E
:10E2400090E0880F991F110F1A83198229813A8152
:10E25000822B932BAA2797FDA095BA2FCEC190377A
:10E2600011F483E5D9CF933571F46AE8E62E61E0C5
:10E27000F62EF70181917F0163DFF1E9EF16F1E0FE
:10E28000FF06B9F7E6C1963521F481E359DF80E353
:10E29000C3CF933731F482E853DF87E951DF8EE152
:10E2A000BBCF953601F580E090E0DC01FC01A09346
:10E2B0005B0070925700E89507B600FCFDCFFC01AB
:10E2C000A0935B0060925700E89507B600FCFDCF75
:10E2D0009F5FAF4FBF4F811520EE920721E0A2074D
:10E2E000B10521F798CF9C3649F410DF8095E1E025
:10E2F000F0E0082EA0925700E8958DCF923719F4E0
:10E30000E1E0F0E00EC0963419F4E0E0F0E009C07E
:10E310009E3419F4E3E0F0E004C0913531F4E2E01A
:10E32000F0E0A0925700849177CF923631F489E5DE
:10E3300007DF81E005DF80E06FCF923419F0973678
:10E3400009F0DFC09D83E2DE582E412CDFDE920112
:10E35000282B3A872987DADE182F85549D81823051
:10E3600010F08FE359CF973609F046C0009357005D
:10E37000E895812C3BC0C0909201D0909301E09031
:10E380009401F0909501D701C6011634B1F48829A3
:10E39000ABBFFC018791D4DE882069F032E0C30E68
:10E3A000D11CE11CF11CC0929201D0929301E09229
:10E3B0009401F09295018B2413C0B695A79597957B
:10E3C000879575D5BDDE82E0C80ED11CE11CF11C1D
:10E3D000C0929201D0929301E0929401F092950143
:10E3E00029853A85215031093A87298729853A8537
:10E3F000232B09F0C0CF2DC1C0909201D090930182
:10E40000E0909401F0909501163409F066C0F60191
:10E41000E0925B0070925700E89507B600FCFDCFD4
:10E420005CC0163489F5882059F1409192015091D1
:10E43000930160919401709195014D835E836F8388
:10E44000788764DE8C831B822B813C8123294D815C
:10E450005E816F8178850901FA0160935B00B0925B
:10E460005700E89511244E5F5F4F6F4F7F4F4093E9
:10E47000920150939301609394017093950102C0AF
:10E4800045DE382E8B2422C041DE682F8091920118
:10E4900090919301A0919401B0919501B695A795A3
:10E4A000979587950CD58091920190919301A091B9
:10E4B0009401B09195010296A11DB11D8093920126
:10E4C00090939301A0939401B093950129853A8587
:10E4D000215031093A87298702C0312C812C2985A6
:10E4E0003A85232B09F09DCF163409F094CEF6011E
:10E4F000E0925B0060925700E89507B600FCFDCF04
:10E500008ACE933499F4C0909201D0909301E09018
:10E510009401F0909501FADD90E00C01F601E09293
:10E520005B00B0925700E895112475CE933619F52B
:10E53000C0909201D0909301E0909401F0909501E9
:10E54000E5DDB701A601416090E00C01FA0160939E
:10E550005B00B0925700E895112432E0C30ED11C45
:10E56000E11CF11CC0929201D0929301E0929401BF
:10E57000F092950150CE9D3691F480919201909148
:10E580009301A0919401B0919501FC01A0935B00CF
:10E5900060925700E89507B600FCFDCF3CCE92355F
:10E5A00081F48091920190919301A0919401B09196
:10E5B0009501ABBFFC01E790F6908F2DC1DD8E2D4C
:10E5C0002BCE943419F5A2DD682F809192019091A1
:10E5D0009301A0919401B0919501B695A795979557
:10E5E00087956DD48091920190919301A0919401AF
:10E5F000B09195010296A11DB11D80939201909357
:10E600009301A0939401B093950105CE9436F1F453
:10E61000C0909201D0909301E0909401F090950108
:10E62000D701C601B695A7959795879540D488DD03
:10E6300082E0C80ED11CE11CF11CC0929201D09264
:10E640009301E0929401F092950103C09B3109F08F
:10E6500088CE7092E9009091E8008091E8008E7772
:10E660008093E80095FD11C08091E80080FD04C012
:10E670008EB38111F9CF14C08091E8008E7780931A
:10E68000E80003C08EB3882359F08091E80080FF32
:10E69000F9CF9092E9008091E8008B778093E800B1
:10E6A000EBD3809100018111A3CD8091E0008160C6
:10E6B0008093E00082E49CED9093A1018093A001FF
:10E6C0002CE088E190E00FB6F894A8958093600064
:10E6D0000FBE20936000FFCF1F920F920FB60F92D4
:10E6E00011248F9380E389B98F910F900FBE0F9003
:10E6F0001F90189542E061EC82E067D142E161E849
:10E7000083E063D142E160E884E05FC180919801D9
:10E71000982F9F779132A9F590E399B9909199013B
:10E72000913229F0923229F1903259F510C0813A94
:10E7300041F58091E800877F8093E80067E070E012
:10E7400081E091E0ACD08091E8008B770FC08132FE
:10E75000C1F48091E800877F8093E80067E070E073
:10E7600081E091E0F2D08091E8008E778093E8001C
:10E770000895813231F48091E800877F8093E8002A
:10E7800038C10895292F30E033272230310539F080
:10E790002330310549F02130310589F00BC02EE3DB
:10E7A00030E08AE391E01EC0882371F0813089F067
:10E7B0008230A1F020E030E080E090E013C022E160
:10E7C00030E088E791E00EC024E030E086E391E09D
:10E7D00009C028E130E08CE191E004C022E130E0A2
:10E7E00088E091E0FA0191838083C901089507B61A
:10E7F00000FCFDCFF999FECF23E0FB0180935B0085
:10E8000020935700E89507B600FCFDCF81E1809387
:10E810005700E895089507B600FCFDCFF999FECFA3
:10E8200025E0FB0180935B0020935700E89507B635
:10E8300000FCFDCF81E180935700E895089507B66D
:10E8400000FCFDCFF999FECF21E00A01FB01809386
:10E850005B0020935700E8951124089521E2FC0104
:10E86000209357008491089529E0FC0120935700DC
:10E8700084910895E1E0F0E089E08093570084916D
:10E88000089507B600FCFDCFF999FECF809599E079
:10E89000E1E0F0E0082E90935700E895089520916C
:10E8A0009E0130919F012617370748F061157105C9
:10E8B00039F42091E8002E772093E80001C0B901D7
:10E8C000FC0120E02BC08EB38823D9F18530D9F12B
:10E8D0008091E80083FD33C08091E80082FD29C06B
:10E8E0008091E80080FF1AC08091F2009091F300BF
:10E8F00006C021912093F1006150710901966115C4
:10E90000710519F088309105A0F321E0089709F00E
:10E9100020E08091E8008E778093E8006115710512
:10E9200091F62111D0CF05C08EB3882351F08530E8
:10E9300051F08091E80082FFF7CF80E0089581E0F8
:10E94000089582E0089583E008956115710529F422
:10E950002091E8002B772093E8009C0122C08EB321
:10E96000882389F1853049F18091E80083FD27C033
:10E970008091E80082FFF3CFF90107C08091F10098
:10E9800081939F016150710939F09F018091F200DC
:10E990009091F300892B91F78091E8008B77809319
:10E9A000E80061157105D9F68091E80080FD09C085
:10E9B0008EB3882341F08530B9F783E0089581E074
:10E9C000089580E0089582E008958F708093E900B3
:10E9D000EBEEF0E0808181608083EDEEF0E010826C
:10E9E0006093EC0040838091EE00881F8827881F89
:10E9F00008958091980187FD05C08091E80080FF0F
:10EA00000DC010C08091E80082FD04C08EB381115A
:10EA1000F9CF08958091E8008B7707C08EB38111FC
:10EA2000ECCF08958091E8008E778093E8000895F8
:10EA30000F931F93CF93DF9349D050D0C8EDD0E010
:10EA400088818F77888388818068888388818F7D9B
:10EA50008883E7EDF0E080818068808319BC1EBA6E
:10EA60001092960100EE10E0F80180818B7F808388
:10EA700088818160888342E060E080E0A6DFE1EE8B
:10EA8000F0E080818E7F8083E2EEF0E08081816023
:10EA90008083808188608083F80180818E7F80837D
:10EAA000888180618883DF91CF911F910F910895B4
:10EAB000E8EDF0E080818F7E8083E7EDF0E08081FB
:10EAC0008160808381E080939701B2CFE8EDF0E030
:10EAD00080818C7F80831092E20008951092DA008A
:10EAE0001092E10008951F920F920FB60F92112419
:10EAF0000BB60F922F933F934F935F936F937F9338
:10EB00008F939F93AF93BF93EF93FF938091DA001E
:10EB100080FF1BC08091D80080FF17C08091DA0071
:10EB20008E7F8093DA008091D90080FF0BC08CE04B
:10EB300089BD8EE089BD09B400FEFDCF81E08EBBAA
:10EB40009AD103C019BC1EBA96D18091E10080FF12
:10EB500017C08091E20080FF13C08091E2008E7F99
:10EB60008093E2008091E20080618093E2008091D6
:10EB7000D80080628093D80019BC85E08EBB7BD121
:10EB80008091E10084FF2EC08091E20084FF2AC0C2
:10EB90008CE089BD8EE089BD09B400FEFDCF809177
:10EBA000D8008F7D8093D8008091E1008F7E809384
:10EBB000E1008091E2008F7E8093E2008091E2008C
:10EBC00081608093E20080919601882311F084E0B7
:10EBD00007C08091E30087FF02C083E001C081E0AD
:10EBE0008EBB49D18091E10083FF21C08091E2007A
:10EBF00083FF1DC08091E100877F8093E10082E068
:10EC00008EBB109296018091E1008E7F8093E1008F
:10EC10008091E2008E7F8093E2008091E20080612B
:10EC20008093E20042E060E080E0CFDE24D1FF91FB
:10EC3000EF91BF91AF919F918F917F916F915F9174
:10EC40004F913F912F910F900BBE0F900FBE0F90E1
:10EC50001F9018951F93CF93DF9300D0CDB7DEB7E9
:10EC6000E8E9F1E08091F100819381E0E03AF80772
:10EC7000C9F74CDD8091E80083FFE9C080919801DD
:10EC800090919901953009F470C038F4913079F180
:10EC900070F0933009F0DBC02AC0983009F4AAC0A4
:10ECA000993009F4B9C0963009F0D1C083C08038DA
:10ECB00099F0823809F0CBC080919C0190919D0120
:10ECC0008F7099278093E9009091EB0095FB99272D
:10ECD00090F91092E90001C090E08091E800877FF0
:10ECE0008093E8009093F1001092F1008EC0882389
:10ECF00019F0823009F0ABC08F71823009F0A7C0E3
:10ED000080919A0181112BC080919C0190919D016D
:10ED10008F709927009709F49AC08093E900209199
:10ED2000EB0020FF1CC020919901233021F4809139
:10ED3000EB00806212C09091EB0090619093EB0029
:10ED400021E030E001C0220F8A95EAF72093EA0023
:10ED50001092EA008091EB0088608093EB001092A3
:10ED6000E9008091E800877F53C0811170C08091D5
:10ED70009A0190919B018F779927182F9091E3002A
:10ED80009078982B9093E3008091E800877F8093A0
:10ED9000E8002FDE8091E80080FFFCCF8091E30047
:10EDA00080688093E300112311F083E001C082E0CA
:10EDB0008EBB4DC08058823008F049C0AE014F5F15
:10EDC0005F4F60919C0180919A0190919B01DADCE8
:10EDD000009709F43CC02091E800277F2093E800C9
:10EDE000BC0189819A815BDD8091E8008B778093FB
:10EDF000E8002DC0803859F58091E800877F809326
:10EE0000E800809196018093F1008091E8008E7770
:10EE10008093E800EEDD1BC0811119C090919A012A
:10EE20009230A8F48091E800877F8093E800909367
:10EE30009601DFDD80919601811104C08091E3008D
:10EE400087FF02C084E001C081E08EBB53DC80916B
:10EE5000E80083FF0AC08091E800877F8093E80084
:10EE60008091EB0080628093EB000F900F90DF9118
:10EE7000CF911F9108950895CF938EB38823A9F061
:10EE80008091E9008F709091EC0090FF02C090E8B3
:10EE900001C090E0C92FC82B1092E9008091E800D2
:10EEA00083FDD8DECF70C093E900CF910895F99922
:10EEB000FECF92BD81BDF89A992780B50895262F7F
:10EEC000F999FECF1FBA92BD81BD20BD0FB6F8944F
:0EEED000FA9AF99A0FBE01960895F894FFCFB2
:10EEDE00010000000000000812034C00550046001F
:10EEEE00410020004300440043000000180344008A
:10EEFE00650061006E002000430061006D0065003A
:10EF0E007200610000000403090409023E000201C0
:10EF1E0000803209040000010202010005240010E5
:10EF2E0001042402020524060001070582030800DD
:10EF3E00FF09040100020A00000007050402100088
:10EF4E0005070583021000051201100102000008DA
:10EF5E00EB034A200001010200014C554641434497
:02EF6E0043005E
:10FFA0000C94F7F30C940BF40C941FF40C942EF4B3
:10FFB0000C9434F40C943AF40C9441F4089508959C
:06FFC00008950895089564
:10FFE000DFCFE0CFE1CFE2CFE3CFE4CFE5CFE6CF85
:08FFF000E6CFE6CFE6CFE6CF35
:08FFF80000E0010000DFFBDC6A
:040000031000E00009
:00000001FF
