:100000004BC0000059C0000057C0000055C00000A0
:1000100053C0000051C000004FC000004DC00000A0
:100020004BC0000049C0000047C0000045C00000B0
:1000300043C0000041C000003FC000003DC00000C0
:100040003BC0000061C0000081C0000035C000005E
:1000500033C0000031C000002FC000002DC00000E0
:100060002BC0000034C0000027C0000025C00000E5
:1000700023C0000021C000001FC000001DC0000000
:100080001BC0000019C0000017C0000015C0000010
:1000900013C0000011C0000011241FBECFEFD0E13B
:1000A000DEBFCDBF21E0A0E0B1E001C01D92A230D3
:1000B000B207E1F797D0F2C0A3CF11B880EE84B9B0
:1000C0008FEF87B98AB952988DB910BA08951F92E7
:1000D0000F920FB60F9211248F939F938091CE00B1
:1000E000982F9068903819F48093010106C0982FDA
:1000F0009064903411F4809300019F918F910F9040
:100100000FBE0F901F9018951F920F920FB60F926F
:1001100011242F938F939F93809188009091890051
:10012000883E934021F45D9A80ED97E003C05D988E
:1001300088EE93E090938900809388009F918F913F
:100140002F910F900FBE0F901F9018951F920F9236
:100150000FB60F9211242F938F939F9380918A0053
:1001600090918B00883E934021F45F9A80ED97E058
:1001700003C05F9888EE93E090938B0080938A0091
:100180009F918F912F910F900FBE0F901F901895F8
:1001900018B885B1806C85B985B18F7385B908951C
:1001A0008A3319F45C9A5E9A0895803129F45C9838
:1001B0005E988BB18F7506C0803231F45C985E9882
:1001C0008BB1806A8BB90895833329F45C985E986B
:1001D0005F9A5D980895823221F45C985E985D9AEA
:1001E0005F9808956ADF60E875E280E090E010D0E3
:1001F000CFDF80E485B98FEF88B98BB91EB825D0E1
:10020000CFDF89EF90E00197F1F700C00000F7CF52
:100210009B01AC0182E08093C80088E18093C90013
:1002200086E08093CA0060E970ED83E090E014D02E
:100230002150310941095109569547953795279520
:100240003093CD002093CC0008958091C80087FFA3
:10025000FCCF8091CE000895A1E21A2EAA1BBB1BF1
:10026000FD010DC0AA1FBB1FEE1FFF1FA217B30782
:10027000E407F50720F0A21BB30BE40BF50B661F98
:10028000771F881F991F1A9469F76095709580955C
:1002900090959B01AC01BD01CF010895F894FFCF6B
:00000001FF
