:100000004BC0000064C0000062C0000060C000007F
:100010005EC000005CC000005AC0000058C0000074
:1000200056C0000054C0000052C0000050C0000084
:100030004EC000004CC000004AC0000048C0000094
:1000400046C000006CC000008DC0000040C0000031
:100050003EC000003CC000003AC0000038C00000B4
:1000600036C000003FC0000032C0000030C00000B9
:100070002EC000002CC000002AC0000028C00000D4
:1000800026C0000024C0000022C0000020C00000E4
:100090001EC000001CC0000011241FBECFEFD0E125
:1000A000DEBFCDBF11E0A0E0B1E0EEEAF2E002C0B9
:1000B00005900D92A030B107D9F711E0A0E0B1E0B2
:1000C00001C01D92A230B107E1F799D0EEC098CFE0
:1000D00011B880EE84B98FEF87B98AB952988DB97B
:1000E00010BA08951F920F920FB60F9211248F939A
:1000F0009F938091CE00982F9068903819F4809348
:10010000010106C0982F9064903411F4809300018F
:100110009F918F910F900FBE0F901F9018951F9277
:100120000F920FB60F9211242F938F939F9380916C
:1001300088009091890023E0883E920721F45D9A1F
:1001400080ED97E003C05D9888EE93E0909389007E
:10015000809388009F918F912F910F900FBE0F90E9
:100160001F9018951F920F920FB60F9211242F9384
:100170008F939F9380918A0090918B0023E0883E1B
:10018000920721F45F9A80ED97E003C05F9888EEB4
:1001900093E090938B0080938A009F918F912F9191
:1001A0000F900FBE0F901F90189518B885B1806CF6
:1001B00085B985B18F7385B908958A3319F45C9A2E
:1001C0005E9A0895803129F45C985E988BB18F75A2
:1001D00006C0803231F45C985E988BB1806A8BB92E
:1001E0000895823229F45C985E985F9A5D9808952C
:1001F000833321F45C985E985D9A5F98089568DF78
:1002000060E875E280E090E00AD0CFDF80E485B955
:100210008FEF88B98BB91EB81FD0CFDFFDCF9B0100
:10022000AC0182E08093C80088E18093C90086E039
:100230008093CA0060E970ED83E090E014D0215013
:1002400031094109510956954795379527953093BE
:10025000CD002093CC0008958091C80087FFFCCF8B
:100260008091CE000895A1E21A2EAA1BBB1BFD01AE
:100270000DC0AA1FBB1FEE1FFF1FA217B307E40785
:10028000F50720F0A21BB30BE40BF50B661F771FDD
:10029000881F991F1A9469F76095709580959095BD
:0E02A0009B01AC01BD01CF010895F894FFCF82
:00000001FF
