:100000004BC0000059C0000057C0000055C00000A0
:1000100053C0000051C000004FC000004DC00000A0
:100020004BC0000049C0000047C0000045C00000B0
:1000300043C0000041C000003FC000003DC00000C0
:100040003BC0000039C0000037C0000035C00000D0
:1000500033C0000031C000002FC000002DC00000E0
:100060002BC0000035C0000027C0000025C00000E4
:1000700023C0000021C000001FC000001DC0000000
:100080001BC0000019C0000017C0000015C0000010
:1000900013C0000011C0000011241FBECFEFD0E13B
:1000A000DEBFCDBF21E0A0E0B1E001C01D92A230D3
:1000B000B207E1F72AD071C0A3CF11B880EC84B9A0
:1000C0008FEF87B988E08AB987E08DB910BA0895B3
:1000D0001F920F920FB60F9211248F939F938091CE
:1000E000CE00982F9068903819F48093010106C0D3
:1000F000982F9064903411F4809300019F918F9118
:100100000F900FBE0F901F901895D7DF60E875E233
:1001100080E090E003D080E090E008959B01AC0186
:1001200082E08093C80088E18093C90086E08093D4
:10013000CA0060E970ED83E090E00DD021503109F4
:100140004109510956954795379527953093CD002C
:100150002093CC000895A1E21A2EAA1BBB1BFD011F
:100160000DC0AA1FBB1FEE1FFF1FA217B307E40796
:10017000F50720F0A21BB30BE40BF50B661F771FEE
:10018000881F991F1A9469F76095709580959095CE
:0E0190009B01AC01BD01CF010895F894FFCF93
:00000001FF
