:100000004BC0000067C0000065C0000063C0000076
:1000100061C000005FC000005DC000005BC0000068
:1000200059C0000057C0000055C0000053C0000078
:1000300051C000004FC000004DC000004BC0000088
:1000400049C0000054C0000045C0000043C000008B
:1000500041C000003FC000003DC000003BC00000A8
:1000600039C0000037C0000035C0000033C00000B8
:1000700031C000002FC000002DC000002BC00000C8
:1000800029C0000027C0000025C0000023C00000D8
:1000900021C000001FC0000011241FBECFEFD0E21E
:1000A000DEBFCDBF11E0A0E0B1E0E2E9F2E000E0A8
:1000B0000BBF02C007900D92A030B107D9F71BBE4D
:1000C00011E0A0E0B1E001C01D92A030B107E1F75E
:1000D00032D0DDC01FC083E48093800082E1809332
:1000E000810082E080936F008FEF84B908951F92A2
:1000F0000F920FB60F9211248F93109285001092D9
:10010000840088B1809588B98F910F900FBE0F90B1
:100110001F9018951F920F920FB60F9211248AEA22
:1001200088B988B1809588B98FE493EC0197F1F78D
:1001300000C00000F6CF8FEF87B988B9CCDF1092EE
:10014000850010928400789488E592E0909389006D
:100150008093880026E2A22E22E0B22E24EF31E026
:1001600042EC51E060E971E0EEE5F1E0ACE28A2EAC
:10017000A1E09A2ECAEFD0E008EC10E0B6E9EB2E31
:10018000F12CA4E6CA2ED12C8FE996E8A1E081508B
:100190009040A040E1F700C00000B0928900A0921A
:1001A00088008FE996E8A1E081509040A040E1F7F7
:1001B00000C0000030938900209388008FE996E802
:1001C000A1E081509040A040E1F700C000005093B2
:1001D0008900409388008FE996E8A1E08150904023
:1001E000A040E1F700C00000709389006093880090
:1001F0008FE996E8A1E081509040A040E1F700C06F
:100200000000F0938900E09388008FE996E8A1E070
:1002100081509040A040E1F700C00000909289001A
:10022000809288008FE996E8A1E081509040A0403C
:10023000E1F700C00000D0938900C09388008FE9E7
:1002400096E8A1E081509040A040E1F700C0000096
:1002500010938900009388008FE996E8A1E081500F
:100260009040A040E1F700C00000F0928900E092C9
:1002700088008FE996E8A1E081509040A040E1F726
:1002800000C00000D0928900C09288007DCFF89411
:02029000FFCF9E
:00000001FF
