:100000004BC0000064C0000062C0000060C000007F
:100010005EC000005CC000005AC0000058C0000074
:1000200056C0000054C0000052C0000050C0000084
:100030004EC000004CC000004AC0000048C0000094
:1000400046C0000044C0000042C0000040C00000A4
:100050003EC000003CC000003AC0000038C00000B4
:1000600036C0000034C0000032C0000030C00000C4
:100070002EC000002CC000002AC0000028C00000D4
:1000800026C0000024C0000022C0000020C00000E4
:100090001EC000001CC0000011241FBECFEFD0E125
:1000A000DEBFCDBF11E0A0E0B1E0EEE3F2E002C0C0
:1000B00005900D92A030B107D9F711E0A0E0B1E0B2
:1000C00001C01D92A330B107E1F743D0B6C098CF6D
:1000D00011B880EC84B98FEF87B988E08AB987E0DE
:1000E0008DB910BA0895806680937C0086EC809369
:1000F0007A0080917A0084FFFCCF80917A00806141
:1001000080937A0080917A00806480937A00809155
:100110007A0084FFFCCF80917A00806180937A001E
:100120008091790010927A0008956B3810F080E287
:100130000DC067FD02C080E109C0893810F082E27D
:1001400005C08E3710F483E301C08AE38093000179
:100150000895BEDF60E875E280E090E022D089EF8C
:1001600090E00197F1F700C0000086E0BCDFC82FE7
:1001700085E0B9DF682F8C2FD8DF8091000134D063
:10018000009B02C080E20BC0019B02C080E107C05F
:10019000029B02C082E203C0039BE1CF83E324D031
:1001A000DECF0F931F939B01AC0182E08093C800C8
:1001B00088E18093C90086E08093CA0060E970ED11
:1001C00083E090E018D089019A010150104020404E
:1001D000304036952795179507951093CD000093DD
:1001E000CC001F910F9108959091C80095FFFCCF0E
:1001F0008093CE000895A1E21A2EAA1BBB1BFD011D
:100200000DC0AA1FBB1FEE1FFF1FA217B307E407F5
:10021000F50720F0A21BB30BE40BF50B661F771F4D
:10022000881F991F1A9469F760957095809590952D
:0E0230009B01AC01BD01CF010895F894FFCFF2
:00000001FF
