:100000004BC0000067C0000065C0000063C0000076
:1000100061C000005FC000005DC000005BC0000068
:1000200059C0000057C0000055C0000053C0000078
:1000300051C000004FC000004DC000004BC0000088
:1000400049C0000047C0000045C0000043C0000098
:1000500041C000003FC000003DC000003BC00000A8
:1000600039C0000037C0000035C0000033C00000B8
:1000700031C000002FC000002DC000002BC00000C8
:1000800029C0000027C0000025C0000023C00000D8
:1000900021C000001FC0000011241FBECFEFD0E21E
:1000A000DEBFCDBF11E0A0E0B1E0E4EEF1E000E0A2
:1000B0000BBF02C007900D92A030B107D9F71BBE4D
:1000C00011E0A0E0B1E001C01D92A836B107E1F750
:1000D0000DD086C095CF80E090E0FC01EC5FFE4F34
:1000E0001082019684369105C1F7089549D053D006
:1000F00055D0C1E0D0E08091C80087FF2DC088B105
:10010000809588B980910001909101018436910514
:1001100021F41092010110920001E0910001F09190
:1001200001018091CE00EC5FFE4F8083E0910001E1
:10013000F0910101EC5FFE4F80818A3021F4D09371
:100140000301C09302018091000190910101019689
:10015000909301018093000180910201909103012D
:100160008130910541F61092030110920201109224
:1001700001011092000184E091E027D0ACDFBBCFF9
:1001800011B88EE884B98FEF87B988E08AB987E023
:100190008DB910BA089580E78CBD089582E08093F0
:1001A000C80088E18093C90086E08093CA008CE093
:1001B00090E09093CD008093CC0008959091C8007A
:1001C00095FFFCCF8093CE000895CF93DF93EC0191
:1001D00001C0F4DF89918823E1F7DF91CF91089581
:0401E000F894FFCFC1
:00000001FF
